:100000000C9446000C9465000C9465000C946500FB
:100010000C9465000C9465000C9465000C946500CC
:100020000C9465000C9465000C9465000C946500BC
:100030000C9465000C9465000C9465000C946500AC
:100040000C9465000C9465000C9465000C9465009C
:100050000C9465000C9465000C9465000C9465008C
:100060000C9465000C9465000C9465000C9465007C
:100070000C9465000C9465000C9465000C9465006C
:100080000C9465000C9465000C94650011241FBE4F
:10009000CFEFD0E1DEBFCDBF11E0A0E0B1E0EAE0FC
:1000A000F2E000E00BBF02C007900D92A030B10754
:1000B000D9F711E0A0E0B1E001C01D92A230B10774
:1000C000E1F70E94D5000C9403010C9400009C0100
:1000D0008FEF87BB2430310501F12530310554F411
:1000E00022303105B1F023303105ACF42130310537
:1000F000F1F40DC026303105A1F0263031057CF039
:100100002730310581F02830310589F40EC0C09ABE
:100110000895C19A0895C29A0895C39A0895C49AF9
:100120000895C59A0895C69A0895C79A08958FEFBD
:1001300088BB08959C018FEF87BB2430310519F1EE
:100140002530310554F422303105B9F02330310522
:10015000BCF42130310541F50DC026303105C9F020
:10016000263031059CF027303105B1F028303105BB
:10017000D9F417C088B391E011C088B392E00EC0E3
:1001800088B394E00BC088B398E008C088B390E1CE
:1001900005C088B390E202C088B390E4892788BB89
:1001A000089588B3805888BB08950F931F93CF9309
:1001B000DF9301E010E0C9E1D0E01093010100936A
:1001C000000119C00E946700809100019091010117
:1001D00001970E949A0080E197E2FE013197F1F7C2
:1001E0000197D9F7809100019091010101969093B8
:1001F00001018093000180910001909101018630FE
:0A0200009105DCF6DFCFF894FFCF84
:00000001FF
